:10000000020603008F828E83E0540100000070F826
:100010002278FFE4F6D8FD020661BB010689828AD8
:1000200083E0225002E722BBFE02E32289828A8318
:10003000E49322BB010689828A83F0225002F722D0
:10004000BBFE01F322C5F0F8A3E028F0C5F0F8E507
:1000500082158270021583E038F022EF2BFFEE3A12
:10006000FEED39FDEC38FC22E88FF0A4CC8BF0A437
:100070002CFCE98EF0A42CFC8AF0EDA42CFCEA8E7A
:10008000F0A4CDA8F08BF0A42DCC3825F0FDE98F9D
:10009000F0A42CCD35F0FCEB8EF0A4FEA9F0EB8F94
:1000A000F0A4CFC5F02ECD39FEE43CFCEAA42DCE61
:1000B00035F0FDE43CFC2275F008758200EF2FFF5F
:1000C000EE33FECD33CDCC33CCC58233C5829BED30
:1000D0009AEC99E58298400CF582EE9BFEED9AFD34
:1000E000EC99FC0FD5F0D6E4CEFBE4CDFAE4CCF9E4
:1000F000A88222B800C1B90059BA002DEC8BF08457
:10010000CFCECDFCE5F0CBF97818EF2FFFEE33FE24
:10011000ED33FDEC33FCEB33FB10D703994004EBDC
:1001200099FB0FD8E5E4F9FA227818EF2FFFEE33A8
:10013000FEED33FDEC33FCC933C910D7059BE99ABA
:100140004007EC9BFCE99AF90FD8E0E4C9FAE4CC4B
:10015000FB2275F010EF2FFFEE33FEED33FDCC33B5
:10016000CCC833C810D7079BEC9AE899400AED9B9E
:10017000FDEC9AFCE899F80FD5F0DAE4CDFBE4CC7D
:10018000FAE4C8F922EF4BFFEE4AFEED49FDEC48D8
:10019000FC22E8600FECC313FCED13FDEE13FEEF41
:1001A00013FFD8F122E8600FEFC333FFEE33FEED0B
:1001B00033FDEC33FCD8F122E0FCA3E0FDA3E0FE2C
:1001C000A3E0FF22E0F8A3E0F9A3E0FAA3E0FB221A
:1001D000ECF0A3EDF0A3EEF0A3EFF022E0FBA3E040
:1001E000FAA3E0F922EBF0A3EAF0A3E9F022E4930A
:1001F000FB740193FA740293F922D083D082F8E45D
:10020000937012740193700DA3A393F8740193F586
:10021000828883E4737402936860EFA3A3A380DFF2
:10022000E50C2582F582E50B3583F583B50B048556
:10023000820C2210AF0685820CF50B2285820CF50C
:100240000BD2AF22EC8EF0A4CCC5F0CCCDF8EFA44D
:10025000CEC5F02DFDE43CFCE8A42EC8C5F03DFD64
:10026000E43CFCEFA4FFE5F028FEE43DFDE43CFCAB
:1002700022E709F608DFFA8046E709F208DFFA808C
:100280003E88828C83E709F0A3DFFA8032E309F627
:1002900008DFFA806EE309F208DFFA806688828C54
:1002A00083E309F0A3DFFA805A89828A83E0A3F608
:1002B00008DFFA804E89828A83E0A3F208DFFA80A1
:1002C0004280D280FA80C680D4805580F280298016
:1002D0001080A680EA809A80A880DA80E280CA80B6
:1002E0002988848C8589828A83E493A30586F0A378
:1002F0000586DFF5DEF3800B89828A83E493A3F61B
:1003000008DFF9ECFAA9F0EDFB2288848C8589825C
:100310008A83E0A30586F0A30586DFF6DEF480E39A
:1003200089828A83E493A3F208DFF980D688F0EF0C
:1003300060010E4E60CD88F0ED2402B4040050C37D
:10034000F582EB2402B4040050B9232345822390A4
:1003500002C17390480074F1F01204B17B007A4638
:1003600079E812093CEF4405FD7B007A4679E812F2
:100370000948750A00E50AC39408503AAF0AEF75B8
:10038000F005A42454F582E43409F583AF82AE83EA
:100390008E088F09AE08AF098F828E831201EEAEF0
:1003A00008AF098F828E83740393FC740493FD124B
:1003B00007DD050A80BF7B017A50790312093CEF03
:1003C0004402FD7B017A5079031209487B017A507F
:1003D000791312093CEF4402FD7B017A5079131224
:1003E00009489043A0E0FFEF4440FF9043A0EFF0A6
:1003F0009043C2E0FFEF4410FF9043C2EFF07B0850
:100400007A007900C003C002C0017B007A517902F2
:100410009000561201E5D001D002D0037F087E0083
:1004200012083B7B087A007908C003C002C0017B38
:10043000007A5179129000561201E5D001D002D015
:10044000037F087E0012083B904322E0FFEF440840
:10045000FF904322EFF09046ECE0FFEFC39405508D
:1004600006904689743AF07B017A5079077D4012F4
:1004700009487B017A5079177D401209481207A775
:100480007B007A4379A0C003C002C0017B007A439D
:1004900079B09000561201E5D001D002D0037F0E52
:1004A0007E0012083B9043B0E0FFEF54FDFFEFF0F9
:1004B000229043007406F07B007A4279127D137C0F
:1004C0003312092D9042107405F0904210E0FF7F26
:1004D000C87E327D007C009000511201D090005106
:1004E0001201B8D3EF9400EE94004033904210E034
:1004F000FFEF5480FF7E00EF4E60247FE07E017DA1
:10050000007C001208009000511201B87BFF7AFFB6
:1005100079FF78FF12005B9000511201D080BE90ED
:1005200000511201B8EF4E70057F0112091B7B00CC
:100530007A4279227D147C0712092D9040007401C3
:10054000F07B007A4279207D517C1212092D9000B7
:1005500055E4F07F197E007D007C0090005112016F
:10056000D09000511201B8D3EF9400EE9400404EA9
:10057000900055E0FFEF64036044904225E0FFEFF8
:100580005401FF7E00900055E0FEEE25E0FEEE4FA8
:10059000FFEF5403FF900055EFF07FE07E017D00F8
:1005A0007C001208009000511201B87BFF7AFF799D
:1005B000FF78FF12005B9000511201D080A39000E1
:1005C000511201B8EF4E70057F0312091B7B007AB0
:1005D0004079047D007C0112092D9040007441F0A7
:1005E0009042007420F09040047407F0904006E4BC
:1005F000F09040087448F0904004E4F0904001749A
:1006000002F02275930078007583467582E8E04415
:1006100001F0009046ECE0F99046FAE0FAB90322C6
:100620005420B40012B8001AEA901FFFF074019031
:100630001FFEF09046F6F0901FFEE06005901FFF51
:10064000E0FA90480074C0F075810C9000007800CA
:100650007920E4F0A3D8FCD9FAEA90004CF002002B
:1006600011750B1F750CFD1203530206A80206ED4F
:10067000E493A3F8E493A34003F68001F208DFF4C7
:100680008029E493A3F85407240CC8C333C4540F3F
:100690004420C8834004F456800146F6DFE4800B12
:1006A00001020408102040809008F7E47E01936066
:1006B000BCA3FF543F30E509541FFEE493A360013F
:1006C0000ECF54C025E060A840B8E493A3FAE493A9
:1006D000A3F8E493A3C8C582C8CAC583CAF0A3C857
:1006E000C582C8CAC583CADFE9DEE780BE7F0A7E4D
:1006F000007D007C009000511201D0900056E4F083
:10070000900056E0FFEFC3940850F07F0012086F8E
:10071000900055E4F0900055E0FFEFC39420503C6A
:100720009000511201B8EF5401FFEE5400FEED5459
:1007300000FDEC5400FC1208CD7F0112089F7F00E1
:1007400012089F9000511201B87801120192900096
:10075000511201D0900055E004F080B9900055E4AA
:10076000F0900055E0FFEFC39408502C900056E045
:10077000FFEF5401FF1208CD7F0112089F7F001286
:10078000089F900056E0FFEFC313FF900056EFF074
:10079000900055E004F080C97F0112086F90005668
:1007A000E004F0020700227B0C7A0179CF12093CA9
:1007B000900051EFF0900051E0FFEF5407FF905888
:1007C0006EEFF0900051E0FFEFC4540FFFEF540FB5
:1007D000FF90586FEFF09058767444F022EC4D6023
:1007E00011ED60010C8B938A838982E4F0A3DDFC18
:0607F000DCFA7593002203
:10080000EC4D4E700D78FCEF24E950032840FD229A
:1008100000007BF178DA0000EF28FF78FFEE38FE69
:10082000ED38FDEC38FC50E7EF2BFFEE38FEED38ED
:10083000FDEC38FC40F22205020304758600EF4E01
:100840006027EF60010E759300900056E0F595A3C8
:10085000E0F585A3E0F5848B938A838982E0A30584
:1008600086F0A31586DFF6DEF4E4F593F595229085
:100870000057EFF0905100E0FFEF54FBFF9000585D
:10088000EFF0900057E0FFEF25E025E0FFEF540484
:10089000FF900058E0FEEF4EFF905100EFF02290E5
:1008A0000057EFF0905100E0FFEF54FDFF9000582B
:1008B000EFF0900057E0FFEF25E0FFEF5402FF90CC
:1008C0000058E0FEEF4EFF905100EFF022900057ED
:1008D000EFF0905100E0FFEF54FEFF900058EFF072
:1008E000900057E0FFEF5401FF900058E0FEEF4EFC
:1008F000FF905100EFF02244004802FAF0804400DB
:10090000430000C3504100473244004D61A800003D
:1009100043005900000041005E0000900056EFF0D7
:10092000900056E0FF900056EFF080FE228B938AF5
:10093000838982EDF0A3ECF0759300228B938A8378
:100940008982E0759300FF228B938A838982EDF080
:100950007593002200512000500051C0001000513A
:10096000F000100100001000011400080001400018
:0C0970000A00014C0002000150000020B1
:00000001FF
