:100000000205E7008F828E83E0540100000070F843
:100010002278FFE4F6D8FD020645BB010689828AF4
:1000200083E0225002E722BBFE02E32289828A8318
:10003000E49322BB010689828A83F0225002F722D0
:10004000BBFE01F322C5F0F8A3E028F0C5F0F8E507
:1000500082158270021583E038F022EF2BFFEE3A12
:10006000FEED39FDEC38FC22E88FF0A4CC8BF0A437
:100070002CFCE98EF0A42CFC8AF0EDA42CFCEA8E7A
:10008000F0A4CDA8F08BF0A42DCC3825F0FDE98F9D
:10009000F0A42CCD35F0FCEB8EF0A4FEA9F0EB8F94
:1000A000F0A4CFC5F02ECD39FEE43CFCEAA42DCE61
:1000B00035F0FDE43CFC2275F008758200EF2FFF5F
:1000C000EE33FECD33CDCC33CCC58233C5829BED30
:1000D0009AEC99E58298400CF582EE9BFEED9AFD34
:1000E000EC99FC0FD5F0D6E4CEFBE4CDFAE4CCF9E4
:1000F000A88222B800C1B90059BA002DEC8BF08457
:10010000CFCECDFCE5F0CBF97818EF2FFFEE33FE24
:10011000ED33FDEC33FCEB33FB10D703994004EBDC
:1001200099FB0FD8E5E4F9FA227818EF2FFFEE33A8
:10013000FEED33FDEC33FCC933C910D7059BE99ABA
:100140004007EC9BFCE99AF90FD8E0E4C9FAE4CC4B
:10015000FB2275F010EF2FFFEE33FEED33FDCC33B5
:10016000CCC833C810D7079BEC9AE899400AED9B9E
:10017000FDEC9AFCE899F80FD5F0DAE4CDFBE4CC7D
:10018000FAE4C8F922EF4BFFEE4AFEED49FDEC48D8
:10019000FC22E8600FECC313FCED13FDEE13FEEF41
:1001A00013FFD8F122E8600FEFC333FFEE33FEED0B
:1001B00033FDEC33FCD8F122E0FCA3E0FDA3E0FE2C
:1001C000A3E0FF22E0F8A3E0F9A3E0FAA3E0FB221A
:1001D000ECF0A3EDF0A3EEF0A3EFF022E0FBA3E040
:1001E000FAA3E0F922EBF0A3EAF0A3E9F022E4930A
:1001F000FB740193FA740293F922D083D082F8E45D
:10020000937012740193700DA3A393F8740193F586
:10021000828883E4737402936860EFA3A3A380DFF2
:10022000E50C2582F582E50B3583F583B50B048556
:10023000820C2210AF0685820CF50B2285820CF50C
:100240000BD2AF22EC8EF0A4CCC5F0CCCDF8EFA44D
:10025000CEC5F02DFDE43CFCE8A42EC8C5F03DFD64
:10026000E43CFCEFA4FFE5F028FEE43DFDE43CFCAB
:1002700022E709F608DFFA8046E709F208DFFA808C
:100280003E88828C83E709F0A3DFFA8032E309F627
:1002900008DFFA806EE309F208DFFA806688828C54
:1002A00083E309F0A3DFFA805A89828A83E0A3F608
:1002B00008DFFA804E89828A83E0A3F208DFFA80A1
:1002C0004280D280FA80C680D4805580F280298016
:1002D0001080A680EA809A80A880DA80E280CA80B6
:1002E0002988848C8589828A83E493A30586F0A378
:1002F0000586DFF5DEF3800B89828A83E493A3F61B
:1003000008DFF9ECFAA9F0EDFB2288848C8589825C
:100310008A83E0A30586F0A30586DFF6DEF480E39A
:1003200089828A83E493A3F208DFF980D688F0EF0C
:1003300060010E4E60CD88F0ED2402B4040050C37D
:10034000F582EB2402B4040050B9232345822390A4
:1003500002C1739043007406F07B007A4279127DEB
:10036000137C331209129042107405F0904210E091
:10037000FF7FC87E327D007C009000511201D0903A
:1003800000511201B8D3EF9400EE94004033904234
:1003900010E0FFEF5480FF7E00EF4E60247FE07E90
:1003A000017D007C001208009000511201B87BFF13
:1003B0007AFF79FF78FF12005B9000511201D08024
:1003C000BE9000511201B8EF4E70057F0112090076
:1003D0007B007A4279227D147C071209129040003A
:1003E0007401F07B007A4279207D517C121209124F
:1003F000900055E4F07F197E007D007C0090005154
:100400001201D09000511201B8D3EF9400EE940085
:10041000404E900055E0FFEF64036044904225E0B9
:10042000FFEF5401FF7E00900055E0FEEE25E0FE58
:10043000EE4FFFEF5403FF900055EFF07FE07E0199
:100440007D007C001208009000511201B87BFF7AF9
:10045000FF79FF78FF12005B9000511201D080A35A
:100460009000511201B8EF4E70057F031209007B16
:10047000007A4079047D007C0112091290400074DA
:1004800041F09042007420F09040047407F09040D6
:1004900006E4F09040087448F0904004E4F0904086
:1004A000017402F0227B007A4679E8120921EF44B8
:1004B00005FD7B007A4679E812092D750A00E50AE8
:1004C000C39408503AAF0AEF75F005A42439F582B9
:1004D000E43409F583AF82AE838E088F09AE08AF8E
:1004E000098F828E831201EEAE08AF098F828E8350
:1004F000740393FC740493FD1208E7050A80BF7B24
:10050000017A507903120921EF4402FD7B017A50F0
:10051000790312092D7B017A507913120921EF44D6
:1005200002FD7B017A50791312092D7B087A00793C
:1005300000C003C002C0017B007A517902900056CE
:100540001201E5D001D002D0037F087E001207C15E
:100550007B087A007908C003C002C0017B007A5191
:1005600079129000561201E5D001D002D0037F0825
:100570007E001207C1904322E0FFEF4408FF904342
:1005800022EFF09046ECE0FFEFC394055006904652
:1005900089743AF090480074F1F01203537B017AA9
:1005A0005079077D4012092D7B017A5079177D40E3
:1005B00012092D12078B7B007A4379A0C003C00279
:1005C000C0017B007A4379B09000561201E5D0015A
:1005D000D002D0037F0E7E001207C19043B0E0FF2F
:1005E000EF54FDFFEFF02275930078007583467598
:1005F00082E8E04401F0009046ECE0F99046FAE031
:10060000FAB903225420B40012B8001AEA901FFF6E
:10061000F07401901FFEF09046F6F0901FFEE0602F
:1006200005901FFFE0FA90480074C0F075810C90AF
:10063000000078007920E4F0A3D8FCD9FAEA900011
:100640004CF0020011750B1F750CFD1204A502067B
:100650008C0206D1E493A3F8E493A34003F680014F
:10066000F208DFF48029E493A3F85407240CC8C3EC
:1006700033C4540F4420C8834004F456800146F626
:10068000DFE4800B01020408102040809008C3E4DE
:100690007E019360BCA3FF543F30E509541FFEE484
:1006A00093A360010ECF54C025E060A840B8E49346
:1006B000A3FAE493A3F8E493A3C8C582C8CAC58388
:1006C000CAF0A3C8C582C8CAC583CADFE9DEE7800D
:1006D000BE7F0A7E007D007C009000511201D09008
:1006E0000056E4F0900056E0FFEFC3940850F07F0E
:1006F0000012083B900055E4F0900055E0FFEFC376
:100700009420503C9000511201B8EF5401FFEE5478
:1007100000FEED5400FDEC5400FC1208997F01121C
:10072000086B7F0012086B9000511201B87801121B
:1007300001929000511201D0900055E004F080B970
:10074000900055E4F0900055E0FFEFC39408502C62
:10075000900056E0FFEF5401FF1208997F01120844
:100760006B7F0012086B900056E0FFEFC313FF9001
:100770000056EFF0900055E004F080C97F011208A8
:100780003B900056E004F00206E4227B0C7A0179EB
:10079000CF120921900051EFF0900051E0FFEF548B
:1007A00007FF90586EEFF0900051E0FFEFC4540F38
:1007B000FFEF540FFF90586FEFF09058767444F0AD
:1007C00022758600EF4E6027EF60010E7593009052
:1007D0000056E0F595A3E0F585A3E0F5848B938AB8
:1007E000838982E0A30586F0A31586DFF6DEF4E4B4
:0507F000F593F59522D0
:10080000EC4D4E700D78FCEF24E950032840FD229A
:1008100000007BF178DA0000EF28FF78FFEE38FE69
:10082000ED38FDEC38FC50E7EF2BFFEE38FEED38ED
:10083000FDEC38FC40F22205020304900057EFF073
:10084000905100E0FFEF54FBFF900058EFF0900054
:1008500057E0FFEF25E025E0FFEF5404FF9000583C
:10086000E0FEEF4EFF905100EFF022900057EFF0C6
:10087000905100E0FFEF54FDFF900058EFF0900022
:1008800057E0FFEF25E0FFEF5402FF900058E0FE35
:10089000EF4EFF905100EFF022900057EFF0905193
:1008A00000E0FFEF54FEFF900058EFF0900057E09B
:1008B000FFEF5401FF900058E0FEEF4EFF90510013
:1008C000EFF02244004802FAF0804400430000C3E5
:1008D000504100473244004D61A8000043005900D8
:1008E000000041005E0000EC4D6011ED60010C8BDA
:1008F000938A838982E4F0A3DDFCDCFA75930022FD
:10090000900056EFF0900056E0FF900056EFF08018
:10091000FE228B938A838982EDF0A3ECF07593001D
:10092000228B938A838982E0759300FF228B938ABE
:10093000838982EDF0759300220051200050005110
:10094000C000100051F00010010000100001140060
:1009500008000140000A00014C00020001500000A4
:010960002076
:00000001FF
